:020000020000FC
:100000000C942A000C949C000C949C000C949C0072
:100010000C949C000C949C000C949C000C949C00F0
:100020000C9490000C9468000C949C000C949C0020
:100030000C949C000C949C000C949C000C949C00D0
:100040000C949C000C949C000C949C000C949C00C0
:100050000C949C0004E00EBF0FE50DBF0FEF0ABB30
:1000600000E00BBB0FEF07BB00E008BB03E003BFE2
:1000700003E00EBD05E009BFEAE3F1E005D0222769
:10008000A3E6B0E07894FFCF1127C3E6D0E0059156
:100090000030A9F013951F93EF93FF93E8E4F1E08C
:1000A00018E0019FE00DF11D18E0059109931A95E4
:1000B000E1F7FF91EF911F91103409F0E8CF103074
:1000C00001F410936000C0936100D0936200089522
:1000D000002708BBCA2FDB2FC20F0027D01FCF93EA
:1000E000DF9300916100C01B00916200D00B38F0DB
:1000F00003E6C00F00E0D01F0F910F9102C0DF9107
:10010000CF9108810BBB01E0203021F0122F000FAE
:100110001A95E9F708BB2395283009F4222718958A
:10012000119600916100A01731F400916200B017A0
:1001300011F4A3E6B0E018951895206E756F732E34
:100140006564752E7561000000000000000000006D
:100150007E81A98D8DA9817E7EFFD7F3F3D7FF7EA7
:1001600070F8FC7EFCF8700010387CFE7C381000C3
:100170001C59F9FFF9591C00081D3F7F3F1D08005D
:100180000000183C3C180000FFFFE7C3C3E7FFFF77
:10019000003C664242663C00FFC399BDBD99C3FF67
:1001A0000E1F1111BFFEE0F00072FA8F8FFA72007D
:1001B0000307FFFEA0A0E0E003FFFEA0A0A6FEFC58
:1001C000995A3CE7E73C5A99FE7C7C38381010007D
:1001D000101038387C7CFE00002466FFFF66240087
:1001E00000FAFA0000FAFA0060F090FEFE80FEFECF
:1001F0000359FDA5BD9BC240000E0E0E0E0E0E0053
:1002000001296DFFFF6D2901002060FEFE602000C6
:1002100000080CFEFE0C0800101010547C38100072
:1002200010387C54101010003C3C040404040400FA
:1002300010387C10107C38100C1C3C7C7C3C1C0C56
:100240006070787C7C787060000000000000000026
:10025000000060FAFA60000000E0E000E0E000006A
:1002600028FEFE28FEFE2800247454FE545C48003C
:1002700062660C18306646000C5EF2BAEC5E120044
:100280000020E0C00000000000387CC682000000B2
:100290000082C67C3800000010547C38387C541032
:1002A0000010107C7C101000000001070600000008
:1002B00000101010101010000000000606000000D2
:1002C000060C183060C080007CFE9AB2E2FE7C0012
:1002D0000242FEFE0202000046CE9A92F66600003E
:1002E00044C69292FE6C0000183868CAFEFE0A00EE
:1002F000E4E6A2A2BE9C00003C7ED2929E0C0000CE
:10030000C0C08E9EF0E000006CFE9292FE6C000079
:1003100060F29296FC780000000000666600000023
:10032000000001676600000010386CC68200000003
:1003300000282828282828000082C66C38100000D1
:100340000040C09ABAE040007CFE82BABAFA70005F
:100350003E7EC8C87E3E000082FEFE9292FE6C0089
:10036000387CC68282C6440082FEFE82C67C38008B
:1003700082FEFE92BA82C60082FEFE92B880C00063
:10038000387CC6828ACC4E00FEFE1010FEFE0000B5
:100390000082FEFE820000000C0E0282FEFC800045
:1003A00082FEFE1038EEC60082FEFE8202060E00BD
:1003B000FEFE703870FEFE00FEFE603018FEFE008D
:1003C000387CC682C67C380082FEFE9290F06000C7
:1003D00078FC848C86FE7A0082FEFE9098FE660091
:1003E00064F6B2929ACE4C00C082FEFE82C000003B
:1003F000FEFE0202FEFE0000F8FC0606FCF800000D
:10040000FCFE060C06FEFC00C6EE381038EEC600F8
:10041000E0F21E1EF2E00000E2C68E9AB2E6CE00C6
:1004200000FEFE828200000080C06030180C0600D2
:10043000008282FEFE000000103060C060301000BC
:1004400001010101010101010000C0E020000000E4
:10045000042E2A2A3C1E020082FEFC12121E0C00F0
:100460001C3E2222361400000C1E1292FCFE0200DA
:100470001C3E2A2A3A180000127EFE92C06000003C
:10048000193D25251F3E200082FEFE10203E1E0045
:100490000022BEBE0200000006070121BFBE000010
:1004A00082FEFE081C3622000082FEFE02000000D2
:1004B0003E3E181E383E1E003E1E20203E1E0000FE
:1004C0001C3E22223E1C0000213F1F25243C180018
:1004D000183C24251F3F2100223E1E3220301800E8
:1004E000123A2A2E2624000020207CFE222400001E
:1004F0003C3E02023C3E0200383C06063C3800000E
:100500003C3E060C063E3C0022361C081C362200EF
:10051000393D05053F3E000032262E3A32260000C6
:1005200010107CEE82820000000000EEEE00000061
:100530008282EE7C1010000040C080C040C080006D
:100540000E1E3262321E0E00003E7EC888FEFE0085
:1005500082FEFE92929ECC0082FEFE9292FE6C0083
:1005600082FEFE828080C000037FFE82FE7F030049
:1005700082FEFE929292C600C6EE38FEFE38EEC6AD
:100580000044C69292FE6C0000FEFE1830FEFE0093
:10059000007E7E98B07E7E0082FEFE386CC68200B1
:1005A000003E7EC080FEFE00FEFE703870FEFE0043
:1005B00000FEFE1010FEFE00007CFE8282FE7C002B
:1005C00000FEFE8080FEFE0082FEFE8A88F870003B
:1005D000007CFE8282C6440000C082FEFE82C00013
:1005E00000E4F61212FEFC00387C44FEFE447C3827
:1005F00000C6EE3838EEC60000FEFE0202FEFF0323
:1006000000E0F01010FEFE00FEFE02FEFE02FEFE06
:10061000FEFE02FEFE02FFFF80FEFE12121E0C0016
:10062000FEFE121E0CFEFE0000FEFE12121E0C004C
:1006300044C69292D67C3800FEFE107CFE82FE7C80
:100640000072FE8C88FEFE82042E2A2A3C1E0200C6
:10065000003C7E52D29E0C00223E3E2A2A3E1400CE
:10066000223E3E2220203000031F3E223E3F030058
:10067000001C3E2A2A3A180022361C3E3E1C362216
:10068000001436222A3E1400003E3E0C183E3E0066
:10069000003E3E4C583E3E00223E3E081C362200A4
:1006A000000E1E30203E3E003E3E181C183E3E000E
:1006B000003E3E08083E3E00001C3E22223E1C003A
:1006C000003E3E20203E3E005500AA005500AA00F4
:1006D00055AA55AA55AA55AAEBFF55EEBD57FEBB24
:1006E000000000FFFF000000080808FFFF000000F6
:1006F000282828FFFF0000000808FFFF00FFFF0078
:1007000008080F0F080F0F002828283F3F0000009F
:100710002828EFEF00FFFF000000FFFF00FFFF00B1
:1007200028282F2F203F3F002828E8E808F8F80065
:100730000808F8F808F8F800282828F8F800000059
:100740000808080F0F000000000000F8F80808086B
:10075000080808F8F80808080808080F0F0808082B
:10076000000000FFFF080808080808080808080833
:10077000080808FFFF080808000000FFFF282828D5
:100780000000FFFF00FFFF080000F8F808E8E82875
:1007900000003F3F202F2F282828E8E808E8E82815
:1007A00028282F2F202F2F280000FFFF00EFEF28F1
:1007B00028282828282828282828EFEF00EFEF28C5
:1007C000282828E8E82828280808F8F808F8F80869
:1007D0002828282F2F28282808080F0F080F0F086F
:1007E0000000F8F808F8F808000000F8F8282828B1
:1007F0000000003F3F28282800000F0F080F0F08B7
:100800000808FFFF08FFFF08282828FFFF282828DE
:10081000080808F8F80000000000000F0F0808089A
:10082000FFFFFFFFFFFFFFFF0F0F0F0F0F0F0F0F58
:10083000FFFFFFFF0000000000000000FFFFFFFFC0
:10084000F0F0F0F0F0F0F0F0223E3E2A28381000F0
:10085000001C3E22223614000030223E3E22300090
:1008600000303A0A0A3E3C00081C143E3E141C08A4
:100870000022361C1C362200003E3E02023E3F0390
:1008800000303808083E3E003E3E023E3E023E3EFC
:100890003E3E023E3E023F3F203E3E0A0A0E04001C
:1008A0003E3E0A0E043E3E00003E3E0A0A0E040092
:1008B0000014222A2A3E1C003E3E081C3E223E1CFA
:1008C00000123E2C283E3E220054545454545400EE
:1008D000002222FAFA222200028ADA7222020000A0
:1008E000022272DA8A0200000000007FFF80E060CE
:1008F000060701FFFE000000001010D6D610100001
:10090000246C486C246C48000060F090F06000009B
:100910000000001818000000000000080800000097
:10092000080C0E03FFFF808000F87880F878000044
:100930004898B8E84800000000003C3C3C3C0000FF
:080940000000000000000000AF
:00000001FF
