:020000020000FC
:100000000C942A000C94C1000C94C1000C94C10003
:100010000C94C1000C94C1000C94BE000C94C1005F
:100020000C94C1000C94C1000C94B2000C94C1005B
:100030000C94C1000C94C1000C94C1000C94C1003C
:100040000C94C1000C94C1000C94C1000C94C1002C
:100050000C94C10004E00EBF0FE50DBF00EB07BB21
:1000600000E008BB0AE70BBD02E10ABD0CE00EBDD3
:1000700000E109BF03ED0DB9002700936300009371
:1000800064000093650001E000936200009361004A
:1000900004E10093600002D07894FFCFA0E6B0E0C6
:1000A000C6E6D0E016E00D910AD010D00993022FD9
:1000B0000DD009931A95B9F733270FD00895222749
:1000C0000A3018F00A502395FBCF0895E4E8F1E0D8
:1000D000E00F0027F01F04910895A6E6B0E0A30FFB
:1000E0000027B01F0C910FB908950091630003958C
:1000F000009363000C33A8F1002700936300009184
:1001000064000395009364000C3358F100270093BA
:10011000640000916500039500936500083108F1C3
:100120000027009365000091620003950093620030
:100130000032B8F001E00093620000916100039585
:10014000009361000D3068F001E0009361000091C0
:100150006000039500936000043618F000270093B8
:100160006000089533953C3011F0B7DF1895C49ABC
:100170001AE000001A95E9F7C4981895B6DF8EDFEB
:0E0180001895189500010203040506070809EA
:00000001FF
